{
  "address": "0xDc64a140Aa3E981100a9becA4E685f962f0cF6C9",
  "abi": [
    {
      "inputs": [],
      "stateMutability": "nonpayable",
      "type": "constructor"
    },
    {
      "anonymous": false,
      "inputs": [
        {
          "indexed": true,
          "internalType": "bytes32",
          "name": "role",
          "type": "bytes32"
        },
        {
          "indexed": true,
          "internalType": "bytes32",
          "name": "previousAdminRole",
          "type": "bytes32"
        },
        {
          "indexed": true,
          "internalType": "bytes32",
          "name": "newAdminRole",
          "type": "bytes32"
        }
      ],
      "name": "RoleAdminChanged",
      "type": "event"
    },
    {
      "anonymous": false,
      "inputs": [
        {
          "indexed": true,
          "internalType": "bytes32",
          "name": "role",
          "type": "bytes32"
        },
        {
          "indexed": true,
          "internalType": "address",
          "name": "account",
          "type": "address"
        },
        {
          "indexed": true,
          "internalType": "address",
          "name": "sender",
          "type": "address"
        }
      ],
      "name": "RoleGranted",
      "type": "event"
    },
    {
      "anonymous": false,
      "inputs": [
        {
          "indexed": true,
          "internalType": "bytes32",
          "name": "role",
          "type": "bytes32"
        },
        {
          "indexed": true,
          "internalType": "address",
          "name": "account",
          "type": "address"
        },
        {
          "indexed": true,
          "internalType": "address",
          "name": "sender",
          "type": "address"
        }
      ],
      "name": "RoleRevoked",
      "type": "event"
    },
    {
      "anonymous": false,
      "inputs": [
        {
          "indexed": false,
          "internalType": "address",
          "name": "_token",
          "type": "address"
        }
      ],
      "name": "TokenBound",
      "type": "event"
    },
    {
      "anonymous": false,
      "inputs": [
        {
          "indexed": false,
          "internalType": "address",
          "name": "_token",
          "type": "address"
        }
      ],
      "name": "TokenUnbound",
      "type": "event"
    },
    {
      "inputs": [],
      "name": "ADMIN_ROLE",
      "outputs": [
        {
          "internalType": "bytes32",
          "name": "",
          "type": "bytes32"
        }
      ],
      "stateMutability": "view",
      "type": "function"
    },
    {
      "inputs": [],
      "name": "DEFAULT_ADMIN_ROLE",
      "outputs": [
        {
          "internalType": "bytes32",
          "name": "",
          "type": "bytes32"
        }
      ],
      "stateMutability": "view",
      "type": "function"
    },
    {
      "inputs": [],
      "name": "TOKEN_ROLE",
      "outputs": [
        {
          "internalType": "bytes32",
          "name": "",
          "type": "bytes32"
        }
      ],
      "stateMutability": "view",
      "type": "function"
    },
    {
      "inputs": [
        {
          "internalType": "address",
          "name": "_token",
          "type": "address"
        }
      ],
      "name": "bindToken",
      "outputs": [],
      "stateMutability": "nonpayable",
      "type": "function"
    },
    {
      "inputs": [
        {
          "internalType": "address",
          "name": "",
          "type": "address"
        },
        {
          "internalType": "address",
          "name": "",
          "type": "address"
        },
        {
          "internalType": "uint256",
          "name": "",
          "type": "uint256"
        }
      ],
      "name": "canTransfer",
      "outputs": [
        {
          "internalType": "bool",
          "name": "",
          "type": "bool"
        }
      ],
      "stateMutability": "view",
      "type": "function"
    },
    {
      "inputs": [
        {
          "internalType": "address",
          "name": "_to",
          "type": "address"
        },
        {
          "internalType": "uint256",
          "name": "_value",
          "type": "uint256"
        }
      ],
      "name": "created",
      "outputs": [],
      "stateMutability": "nonpayable",
      "type": "function"
    },
    {
      "inputs": [
        {
          "internalType": "address",
          "name": "_from",
          "type": "address"
        },
        {
          "internalType": "uint256",
          "name": "_value",
          "type": "uint256"
        }
      ],
      "name": "destroyed",
      "outputs": [],
      "stateMutability": "nonpayable",
      "type": "function"
    },
    {
      "inputs": [
        {
          "internalType": "bytes32",
          "name": "role",
          "type": "bytes32"
        }
      ],
      "name": "getRoleAdmin",
      "outputs": [
        {
          "internalType": "bytes32",
          "name": "",
          "type": "bytes32"
        }
      ],
      "stateMutability": "view",
      "type": "function"
    },
    {
      "inputs": [
        {
          "internalType": "bytes32",
          "name": "role",
          "type": "bytes32"
        },
        {
          "internalType": "address",
          "name": "account",
          "type": "address"
        }
      ],
      "name": "grantRole",
      "outputs": [],
      "stateMutability": "nonpayable",
      "type": "function"
    },
    {
      "inputs": [
        {
          "internalType": "bytes32",
          "name": "role",
          "type": "bytes32"
        },
        {
          "internalType": "address",
          "name": "account",
          "type": "address"
        }
      ],
      "name": "hasRole",
      "outputs": [
        {
          "internalType": "bool",
          "name": "",
          "type": "bool"
        }
      ],
      "stateMutability": "view",
      "type": "function"
    },
    {
      "inputs": [
        {
          "internalType": "address",
          "name": "_token",
          "type": "address"
        }
      ],
      "name": "isTokenBound",
      "outputs": [
        {
          "internalType": "bool",
          "name": "",
          "type": "bool"
        }
      ],
      "stateMutability": "view",
      "type": "function"
    },
    {
      "inputs": [
        {
          "internalType": "bytes32",
          "name": "role",
          "type": "bytes32"
        },
        {
          "internalType": "address",
          "name": "account",
          "type": "address"
        }
      ],
      "name": "renounceRole",
      "outputs": [],
      "stateMutability": "nonpayable",
      "type": "function"
    },
    {
      "inputs": [
        {
          "internalType": "bytes32",
          "name": "role",
          "type": "bytes32"
        },
        {
          "internalType": "address",
          "name": "account",
          "type": "address"
        }
      ],
      "name": "revokeRole",
      "outputs": [],
      "stateMutability": "nonpayable",
      "type": "function"
    },
    {
      "inputs": [
        {
          "internalType": "bytes4",
          "name": "interfaceId",
          "type": "bytes4"
        }
      ],
      "name": "supportsInterface",
      "outputs": [
        {
          "internalType": "bool",
          "name": "",
          "type": "bool"
        }
      ],
      "stateMutability": "view",
      "type": "function"
    },
    {
      "inputs": [],
      "name": "tokenBound",
      "outputs": [
        {
          "internalType": "contract IToken",
          "name": "",
          "type": "address"
        }
      ],
      "stateMutability": "view",
      "type": "function"
    },
    {
      "inputs": [
        {
          "internalType": "address",
          "name": "_from",
          "type": "address"
        },
        {
          "internalType": "address",
          "name": "_to",
          "type": "address"
        },
        {
          "internalType": "uint256",
          "name": "_value",
          "type": "uint256"
        }
      ],
      "name": "transferred",
      "outputs": [],
      "stateMutability": "nonpayable",
      "type": "function"
    },
    {
      "inputs": [
        {
          "internalType": "address",
          "name": "_token",
          "type": "address"
        }
      ],
      "name": "unbindToken",
      "outputs": [],
      "stateMutability": "nonpayable",
      "type": "function"
    }
  ],
  "transactionHash": "0x39d88e5ecfeb389d697e4e572827732eaae4968e9c11033a3cf7e88e53c3cad7",
  "args": [],
  "numDeployments": 1,
  "solcInputHash": "d310b4fa677a3832b165feff486fc26b",
  "bytecode": "0x608060405234801561001057600080fd5b5061001c600033610093565b6100467fa49807205ce4d355092ef5a8a18f56e8913cf4a201fbe287825b095693c2177533610093565b61008e6040518060400160405280601481526020017f474f5420494e544f20434f4e5354525543544f5200000000000000000000000081525061013260201b6106101760201c565b6101fe565b6000828152602081815260408083206001600160a01b038516845290915290205460ff1661012e576000828152602081815260408083206001600160a01b03851684529091529020805460ff191660011790556100ed3390565b6001600160a01b0316816001600160a01b0316837f2f8788117e7eff1d82e926ec794901d17c78024a50270940304540a733656f0d60405160405180910390a45b5050565b6101798160405160240161014691906101b0565b60408051601f198184030181529190526020810180516001600160e01b0390811663104c13eb60e21b1790915261017c16565b50565b6101798161018f60201b6106561760201c565b60006a636f6e736f6c652e6c6f679050600080835160208501845afa505050565b600060208083528351808285015260005b818110156101dd578581018301518582016040015282016101c1565b506000604082860101526040601f19601f8301168501019250505092915050565b610c32806200020e6000396000f3fe608060405234801561001057600080fd5b506004361061010b5760003560e01c80638301057b116100a257806393e62f071161007157806393e62f071461023d578063993e8b9514610268578063a217fddf1461028a578063d547741f14610292578063e46638e6146102a557600080fd5b80638301057b146101f05780638baf29b4146102175780638d2ea772146101b757806391d148541461022a57600080fd5b80633ff5aa02116100de5780633ff5aa021461019157806340db3b50146101a45780635f8dead3146101b757806375b238fc146101c957600080fd5b806301ffc9a714610110578063248a9ca3146101385780632f2ff15d1461016957806336568abe1461017e575b600080fd5b61012361011e36600461098b565b6102bc565b60405190151581526020015b60405180910390f35b61015b6101463660046109b5565b60009081526020819052604090206001015490565b60405190815260200161012f565b61017c6101773660046109ea565b6102f3565b005b61017c61018c3660046109ea565b610318565b61017c61019f366004610a16565b610397565b61017c6101b2366004610a16565b610476565b61017c6101c5366004610a31565b5050565b61015b7fa49807205ce4d355092ef5a8a18f56e8913cf4a201fbe287825b095693c2177581565b61015b7fa7197c38d9c4c7450c7f2cd20d0a17cbe7c344190d6c82a6b49a146e62439ae481565b61017c610225366004610a5b565b505050565b6101236102383660046109ea565b6105c2565b600254610250906001600160a01b031681565b6040516001600160a01b03909116815260200161012f565b610123610276366004610a16565b6002546001600160a01b0391821691161490565b61015b600081565b61017c6102a03660046109ea565b6105eb565b6101236102b3366004610a5b565b60019392505050565b60006001600160e01b03198216637965db0b60e01b14806102ed57506301ffc9a760e01b6001600160e01b03198316145b92915050565b60008281526020819052604090206001015461030e81610677565b6102258383610681565b6001600160a01b038116331461038d5760405162461bcd60e51b815260206004820152602f60248201527f416363657373436f6e74726f6c3a2063616e206f6e6c792072656e6f756e636560448201526e103937b632b9903337b91039b2b63360891b60648201526084015b60405180910390fd5b6101c58282610705565b6103c17fa49807205ce4d355092ef5a8a18f56e8913cf4a201fbe287825b095693c21775336105c2565b806103d557506002546001600160a01b0316155b6104215760405162461bcd60e51b815260206004820152601f60248201527f4552432d333634333a2043616c6c6572206e6f7420617574686f72697a6564006044820152606401610384565b600280546001600160a01b0319166001600160a01b0383169081179091556040519081527f2de35142b19ed5a07796cf30791959c592018f70b1d2d7c460eef8ffe713692b906020015b60405180910390a150565b6104a07fa49807205ce4d355092ef5a8a18f56e8913cf4a201fbe287825b095693c21775336105c2565b806104d057506104d07fa7197c38d9c4c7450c7f2cd20d0a17cbe7c344190d6c82a6b49a146e62439ae4336105c2565b61051c5760405162461bcd60e51b815260206004820152601f60248201527f4552432d333634333a2043616c6c6572206e6f7420617574686f72697a6564006044820152606401610384565b6002546001600160a01b038281169116146105795760405162461bcd60e51b815260206004820152601960248201527f4552432d333634333a20546f6b656e206e6f7420626f756e64000000000000006044820152606401610384565b600280546001600160a01b03191690556040516001600160a01b03821681527f28a4ca7134a3b3f9aff286e79ad3daadb4a06d1b43d037a3a98bdc074edd9b7a9060200161046b565b6000918252602082815260408084206001600160a01b0393909316845291905290205460ff1690565b60008281526020819052604090206001015461060681610677565b6102258383610705565b610653816040516024016106249190610abb565b60408051601f198184030181529190526020810180516001600160e01b031663104c13eb60e21b17905261076a565b50565b60006a636f6e736f6c652e6c6f679050600080835160208501845afa505050565b6106538133610773565b61068b82826105c2565b6101c5576000828152602081815260408083206001600160a01b03851684529091529020805460ff191660011790556106c13390565b6001600160a01b0316816001600160a01b0316837f2f8788117e7eff1d82e926ec794901d17c78024a50270940304540a733656f0d60405160405180910390a45050565b61070f82826105c2565b156101c5576000828152602081815260408083206001600160a01b0385168085529252808320805460ff1916905551339285917ff6391f5c32d9c69d2a47ea670b442974b53935d1edc7fd64eb21e047a839171b9190a45050565b61065381610656565b61077d82826105c2565b6101c55761078a816107cc565b6107958360206107de565b6040516020016107a6929190610aee565b60408051601f198184030181529082905262461bcd60e51b825261038491600401610abb565b60606102ed6001600160a01b03831660145b606060006107ed836002610b79565b6107f8906002610b90565b67ffffffffffffffff81111561081057610810610ba3565b6040519080825280601f01601f19166020018201604052801561083a576020820181803683370190505b509050600360fc1b8160008151811061085557610855610bb9565b60200101906001600160f81b031916908160001a905350600f60fb1b8160018151811061088457610884610bb9565b60200101906001600160f81b031916908160001a90535060006108a8846002610b79565b6108b3906001610b90565b90505b600181111561092b576f181899199a1a9b1b9c1cb0b131b232b360811b85600f16601081106108e7576108e7610bb9565b1a60f81b8282815181106108fd576108fd610bb9565b60200101906001600160f81b031916908160001a90535060049490941c9361092481610bcf565b90506108b6565b50831561097a5760405162461bcd60e51b815260206004820181905260248201527f537472696e67733a20686578206c656e67746820696e73756666696369656e746044820152606401610384565b9392505050565b610989610be6565b565b60006020828403121561099d57600080fd5b81356001600160e01b03198116811461097a57600080fd5b6000602082840312156109c757600080fd5b5035919050565b80356001600160a01b03811681146109e557600080fd5b919050565b600080604083850312156109fd57600080fd5b82359150610a0d602084016109ce565b90509250929050565b600060208284031215610a2857600080fd5b61097a826109ce565b60008060408385031215610a4457600080fd5b610a4d836109ce565b946020939093013593505050565b600080600060608486031215610a7057600080fd5b610a79846109ce565b9250610a87602085016109ce565b9150604084013590509250925092565b60005b83811015610ab2578181015183820152602001610a9a565b50506000910152565b6020815260008251806020840152610ada816040850160208701610a97565b601f01601f19169190910160400192915050565b7f416363657373436f6e74726f6c3a206163636f756e7420000000000000000000815260008351610b26816017850160208801610a97565b7001034b99036b4b9b9b4b733903937b6329607d1b6017918401918201528351610b57816028840160208801610a97565b01602801949350505050565b634e487b7160e01b600052601160045260246000fd5b80820281158282048414176102ed576102ed610b63565b808201808211156102ed576102ed610b63565b634e487b7160e01b600052604160045260246000fd5b634e487b7160e01b600052603260045260246000fd5b600081610bde57610bde610b63565b506000190190565b634e487b7160e01b600052605160045260246000fdfea26469706673582212209dccc78073385ba07e4c33f07f9122911dfa8076a881802a2ea82ec1fc7fda5664736f6c63430008110033",
  "devdoc": {
    "kind": "dev",
    "methods": {
      "bindToken(address)": {
        "details": "See {ICompliance-bindToken}."
      },
      "canTransfer(address,address,uint256)": {
        "details": "See {ICompliance-canTransfer}."
      },
      "created(address,uint256)": {
        "details": "See {ICompliance-created}."
      },
      "destroyed(address,uint256)": {
        "details": "See {ICompliance-destroyed}."
      },
      "getRoleAdmin(bytes32)": {
        "details": "Returns the admin role that controls `role`. See {grantRole} and {revokeRole}. To change a role's admin, use {_setRoleAdmin}."
      },
      "grantRole(bytes32,address)": {
        "details": "Grants `role` to `account`. If `account` had not been already granted `role`, emits a {RoleGranted} event. Requirements: - the caller must have ``role``'s admin role. May emit a {RoleGranted} event."
      },
      "hasRole(bytes32,address)": {
        "details": "Returns `true` if `account` has been granted `role`."
      },
      "isTokenBound(address)": {
        "details": "See {ICompliance-isTokenBound}."
      },
      "renounceRole(bytes32,address)": {
        "details": "Revokes `role` from the calling account. Roles are often managed via {grantRole} and {revokeRole}: this function's purpose is to provide a mechanism for accounts to lose their privileges if they are compromised (such as when a trusted device is misplaced). If the calling account had been revoked `role`, emits a {RoleRevoked} event. Requirements: - the caller must be `account`. May emit a {RoleRevoked} event."
      },
      "revokeRole(bytes32,address)": {
        "details": "Revokes `role` from `account`. If `account` had been granted `role`, emits a {RoleRevoked} event. Requirements: - the caller must have ``role``'s admin role. May emit a {RoleRevoked} event."
      },
      "supportsInterface(bytes4)": {
        "details": "See {IERC165-supportsInterface}."
      },
      "unbindToken(address)": {
        "details": "See {ICompliance-unbindToken}."
      }
    },
    "version": 1
  },
  "userdoc": {
    "events": {
      "TokenBound(address)": {
        "notice": "this event is emitted when a token has been bound to the compliance contract  the event is emitted by the bindToken function  `_token` is the address of the token to bind"
      },
      "TokenUnbound(address)": {
        "notice": "this event is emitted when a token has been unbound from the compliance contract  the event is emitted by the unbindToken function  `_token` is the address of the token to unbind"
      }
    },
    "kind": "user",
    "methods": {
      "tokenBound()": {
        "notice": "Mapping of tokens linked to the compliance contract"
      }
    },
    "version": 1
  },
  "storageLayout": {
    "storage": [
      {
        "astId": 354,
        "contract": "contracts/compliance/BasicCompliance.sol:BasicCompliance",
        "label": "_roles",
        "offset": 0,
        "slot": "0",
        "type": "t_mapping(t_bytes32,t_struct(RoleData)349_storage)"
      },
      {
        "astId": 2394,
        "contract": "contracts/compliance/BasicCompliance.sol:BasicCompliance",
        "label": "_tokenAgentsList",
        "offset": 0,
        "slot": "1",
        "type": "t_mapping(t_address,t_bool)"
      },
      {
        "astId": 2398,
        "contract": "contracts/compliance/BasicCompliance.sol:BasicCompliance",
        "label": "tokenBound",
        "offset": 0,
        "slot": "2",
        "type": "t_contract(IToken)4541"
      }
    ],
    "types": {
      "t_address": {
        "encoding": "inplace",
        "label": "address",
        "numberOfBytes": "20"
      },
      "t_bool": {
        "encoding": "inplace",
        "label": "bool",
        "numberOfBytes": "1"
      },
      "t_bytes32": {
        "encoding": "inplace",
        "label": "bytes32",
        "numberOfBytes": "32"
      },
      "t_contract(IToken)4541": {
        "encoding": "inplace",
        "label": "contract IToken",
        "numberOfBytes": "20"
      },
      "t_mapping(t_address,t_bool)": {
        "encoding": "mapping",
        "key": "t_address",
        "label": "mapping(address => bool)",
        "numberOfBytes": "32",
        "value": "t_bool"
      },
      "t_mapping(t_bytes32,t_struct(RoleData)349_storage)": {
        "encoding": "mapping",
        "key": "t_bytes32",
        "label": "mapping(bytes32 => struct AccessControl.RoleData)",
        "numberOfBytes": "32",
        "value": "t_struct(RoleData)349_storage"
      },
      "t_struct(RoleData)349_storage": {
        "encoding": "inplace",
        "label": "struct AccessControl.RoleData",
        "members": [
          {
            "astId": 346,
            "contract": "contracts/compliance/BasicCompliance.sol:BasicCompliance",
            "label": "members",
            "offset": 0,
            "slot": "0",
            "type": "t_mapping(t_address,t_bool)"
          },
          {
            "astId": 348,
            "contract": "contracts/compliance/BasicCompliance.sol:BasicCompliance",
            "label": "adminRole",
            "offset": 0,
            "slot": "1",
            "type": "t_bytes32"
          }
        ],
        "numberOfBytes": "64"
      }
    }
  }
}