{
  "address": "0x9fE46736679d2D9a65F0992F2272dE9f3c7fa6e0",
  "abi": [
    {
      "inputs": [],
      "stateMutability": "nonpayable",
      "type": "constructor"
    },
    {
      "anonymous": false,
      "inputs": [
        {
          "indexed": true,
          "internalType": "address",
          "name": "investorAddress",
          "type": "address"
        },
        {
          "indexed": true,
          "internalType": "uint16",
          "name": "country",
          "type": "uint16"
        }
      ],
      "name": "CountryModified",
      "type": "event"
    },
    {
      "anonymous": false,
      "inputs": [
        {
          "indexed": true,
          "internalType": "contract IIdentity",
          "name": "oldIdentity",
          "type": "address"
        },
        {
          "indexed": true,
          "internalType": "contract IIdentity",
          "name": "newIdentity",
          "type": "address"
        }
      ],
      "name": "IdentityModified",
      "type": "event"
    },
    {
      "anonymous": false,
      "inputs": [
        {
          "indexed": true,
          "internalType": "address",
          "name": "identityRegistry",
          "type": "address"
        }
      ],
      "name": "IdentityRegistryBound",
      "type": "event"
    },
    {
      "anonymous": false,
      "inputs": [
        {
          "indexed": true,
          "internalType": "address",
          "name": "identityRegistry",
          "type": "address"
        }
      ],
      "name": "IdentityRegistryUnbound",
      "type": "event"
    },
    {
      "anonymous": false,
      "inputs": [
        {
          "indexed": true,
          "internalType": "address",
          "name": "investorAddress",
          "type": "address"
        },
        {
          "indexed": true,
          "internalType": "contract IIdentity",
          "name": "identity",
          "type": "address"
        }
      ],
      "name": "IdentityStored",
      "type": "event"
    },
    {
      "anonymous": false,
      "inputs": [
        {
          "indexed": true,
          "internalType": "address",
          "name": "investorAddress",
          "type": "address"
        },
        {
          "indexed": true,
          "internalType": "contract IIdentity",
          "name": "identity",
          "type": "address"
        }
      ],
      "name": "IdentityUnstored",
      "type": "event"
    },
    {
      "anonymous": false,
      "inputs": [
        {
          "indexed": true,
          "internalType": "bytes32",
          "name": "role",
          "type": "bytes32"
        },
        {
          "indexed": true,
          "internalType": "bytes32",
          "name": "previousAdminRole",
          "type": "bytes32"
        },
        {
          "indexed": true,
          "internalType": "bytes32",
          "name": "newAdminRole",
          "type": "bytes32"
        }
      ],
      "name": "RoleAdminChanged",
      "type": "event"
    },
    {
      "anonymous": false,
      "inputs": [
        {
          "indexed": true,
          "internalType": "bytes32",
          "name": "role",
          "type": "bytes32"
        },
        {
          "indexed": true,
          "internalType": "address",
          "name": "account",
          "type": "address"
        },
        {
          "indexed": true,
          "internalType": "address",
          "name": "sender",
          "type": "address"
        }
      ],
      "name": "RoleGranted",
      "type": "event"
    },
    {
      "anonymous": false,
      "inputs": [
        {
          "indexed": true,
          "internalType": "bytes32",
          "name": "role",
          "type": "bytes32"
        },
        {
          "indexed": true,
          "internalType": "address",
          "name": "account",
          "type": "address"
        },
        {
          "indexed": true,
          "internalType": "address",
          "name": "sender",
          "type": "address"
        }
      ],
      "name": "RoleRevoked",
      "type": "event"
    },
    {
      "inputs": [],
      "name": "AGENT_ROLE",
      "outputs": [
        {
          "internalType": "bytes32",
          "name": "",
          "type": "bytes32"
        }
      ],
      "stateMutability": "view",
      "type": "function"
    },
    {
      "inputs": [],
      "name": "DEFAULT_ADMIN_ROLE",
      "outputs": [
        {
          "internalType": "bytes32",
          "name": "",
          "type": "bytes32"
        }
      ],
      "stateMutability": "view",
      "type": "function"
    },
    {
      "inputs": [],
      "name": "OWNER_ROLE",
      "outputs": [
        {
          "internalType": "bytes32",
          "name": "",
          "type": "bytes32"
        }
      ],
      "stateMutability": "view",
      "type": "function"
    },
    {
      "inputs": [
        {
          "internalType": "address",
          "name": "_userAddress",
          "type": "address"
        },
        {
          "internalType": "contract IIdentity",
          "name": "_identity",
          "type": "address"
        },
        {
          "internalType": "uint16",
          "name": "_country",
          "type": "uint16"
        }
      ],
      "name": "addIdentityToStorage",
      "outputs": [],
      "stateMutability": "nonpayable",
      "type": "function"
    },
    {
      "inputs": [
        {
          "internalType": "address",
          "name": "_identityRegistry",
          "type": "address"
        }
      ],
      "name": "bindIdentityRegistry",
      "outputs": [],
      "stateMutability": "nonpayable",
      "type": "function"
    },
    {
      "inputs": [
        {
          "internalType": "bytes32",
          "name": "role",
          "type": "bytes32"
        }
      ],
      "name": "getRoleAdmin",
      "outputs": [
        {
          "internalType": "bytes32",
          "name": "",
          "type": "bytes32"
        }
      ],
      "stateMutability": "view",
      "type": "function"
    },
    {
      "inputs": [
        {
          "internalType": "bytes32",
          "name": "role",
          "type": "bytes32"
        },
        {
          "internalType": "address",
          "name": "account",
          "type": "address"
        }
      ],
      "name": "grantRole",
      "outputs": [],
      "stateMutability": "nonpayable",
      "type": "function"
    },
    {
      "inputs": [
        {
          "internalType": "bytes32",
          "name": "role",
          "type": "bytes32"
        },
        {
          "internalType": "address",
          "name": "account",
          "type": "address"
        }
      ],
      "name": "hasRole",
      "outputs": [
        {
          "internalType": "bool",
          "name": "",
          "type": "bool"
        }
      ],
      "stateMutability": "view",
      "type": "function"
    },
    {
      "inputs": [],
      "name": "linkedIdentityRegistries",
      "outputs": [
        {
          "internalType": "address[]",
          "name": "",
          "type": "address[]"
        }
      ],
      "stateMutability": "view",
      "type": "function"
    },
    {
      "inputs": [
        {
          "internalType": "address",
          "name": "_userAddress",
          "type": "address"
        },
        {
          "internalType": "contract IIdentity",
          "name": "_identity",
          "type": "address"
        }
      ],
      "name": "modifyStoredIdentity",
      "outputs": [],
      "stateMutability": "nonpayable",
      "type": "function"
    },
    {
      "inputs": [
        {
          "internalType": "address",
          "name": "_userAddress",
          "type": "address"
        },
        {
          "internalType": "uint16",
          "name": "_country",
          "type": "uint16"
        }
      ],
      "name": "modifyStoredInvestorCountry",
      "outputs": [],
      "stateMutability": "nonpayable",
      "type": "function"
    },
    {
      "inputs": [
        {
          "internalType": "address",
          "name": "_userAddress",
          "type": "address"
        }
      ],
      "name": "removeIdentityFromStorage",
      "outputs": [],
      "stateMutability": "nonpayable",
      "type": "function"
    },
    {
      "inputs": [
        {
          "internalType": "bytes32",
          "name": "role",
          "type": "bytes32"
        },
        {
          "internalType": "address",
          "name": "account",
          "type": "address"
        }
      ],
      "name": "renounceRole",
      "outputs": [],
      "stateMutability": "nonpayable",
      "type": "function"
    },
    {
      "inputs": [
        {
          "internalType": "bytes32",
          "name": "role",
          "type": "bytes32"
        },
        {
          "internalType": "address",
          "name": "account",
          "type": "address"
        }
      ],
      "name": "revokeRole",
      "outputs": [],
      "stateMutability": "nonpayable",
      "type": "function"
    },
    {
      "inputs": [
        {
          "internalType": "address",
          "name": "_userAddress",
          "type": "address"
        }
      ],
      "name": "storedIdentity",
      "outputs": [
        {
          "internalType": "contract IIdentity",
          "name": "",
          "type": "address"
        }
      ],
      "stateMutability": "view",
      "type": "function"
    },
    {
      "inputs": [
        {
          "internalType": "address",
          "name": "_userAddress",
          "type": "address"
        }
      ],
      "name": "storedInvestorCountry",
      "outputs": [
        {
          "internalType": "uint16",
          "name": "",
          "type": "uint16"
        }
      ],
      "stateMutability": "view",
      "type": "function"
    },
    {
      "inputs": [
        {
          "internalType": "bytes4",
          "name": "interfaceId",
          "type": "bytes4"
        }
      ],
      "name": "supportsInterface",
      "outputs": [
        {
          "internalType": "bool",
          "name": "",
          "type": "bool"
        }
      ],
      "stateMutability": "view",
      "type": "function"
    },
    {
      "inputs": [
        {
          "internalType": "address",
          "name": "_identityRegistry",
          "type": "address"
        }
      ],
      "name": "unbindIdentityRegistry",
      "outputs": [],
      "stateMutability": "nonpayable",
      "type": "function"
    }
  ],
  "transactionHash": "0x7d5d04b79ae80e17b9c0047625d5d75f086e0da3955cd970b08053dc659378e5",
  "args": [],
  "numDeployments": 1,
  "solcInputHash": "d310b4fa677a3832b165feff486fc26b",
  "bytecode": "0x60806040523480156200001157600080fd5b506200001f600033620000c2565b6200004b7fcab5a0bfe0b79d2c4b1c2e02599fa044d115b7511f9659307cb427695096770933620000c2565b620000777fb19546dff01e856fb3f010c267a7b1c60363cf8a4664e21cc89c26224620214e33620000c2565b620000a66040518060800160405280604c81526020016200166b604c91396200016360201b62000bc31760201c565b620000bc33620001b160201b62000c091760201c565b62000286565b6000828152602081815260408083206001600160a01b038516845290915290205460ff166200015f576000828152602081815260408083206001600160a01b03851684529091529020805460ff191660011790556200011e3390565b6001600160a01b0316816001600160a01b0316837f2f8788117e7eff1d82e926ec794901d17c78024a50270940304540a733656f0d60405160405180910390a45b5050565b620001ae816040516024016200017a919062000236565b60408051601f198184030181529190526020810180516001600160e01b0390811663104c13eb60e21b17909152620001ff16565b50565b6040516001600160a01b0382166024820152620001ae9060440160408051601f198184030181529190526020810180516001600160e01b0390811663161765e160e11b17909152620001ff16565b620001ae816200021560201b62000c511760201c565b60006a636f6e736f6c652e6c6f679050600080835160208501845afa505050565b600060208083528351808285015260005b81811015620002655785810183015185820160400152820162000247565b506000604082860101526040601f19601f8301168501019250505092915050565b6113d580620002966000396000f3fe608060405234801561001057600080fd5b50600436106101165760003560e01c806397a012f7116100a2578063bf9eb95911610071578063bf9eb959146102a3578063cf191bcd146102b8578063d547741f146102cb578063e58378bb146102de578063e805cf861461030557600080fd5b806397a012f7146102625780639f3418d514610275578063a217fddf14610288578063a53410dd1461029057600080fd5b806336568abe116100e957806336568abe1461019e578063690a49f9146101b1578063727e13bc146101c45780637988d3a51461020b57806391d148541461024f57600080fd5b806301ffc9a71461011b57806322459e1814610143578063248a9ca3146101665780632f2ff15d14610189575b600080fd5b61012e610129366004610f86565b610318565b60405190151581526020015b60405180910390f35b61015860008051602061138083398151915281565b60405190815260200161013a565b610158610174366004610fb0565b60009081526020819052604090206001015490565b61019c610197366004610fde565b61034f565b005b61019c6101ac366004610fde565b610379565b61019c6101bf36600461100e565b6103fc565b6101f86101d236600461100e565b6001600160a01b0316600090815260016020526040902054600160a01b900461ffff1690565b60405161ffff909116815260200161013a565b61023761021936600461100e565b6001600160a01b039081166000908152600160205260409020541690565b6040516001600160a01b03909116815260200161013a565b61012e61025d366004610fde565b61056c565b61019c61027036600461100e565b610595565b61019c610283366004611042565b610785565b610158600081565b61019c61029e366004611077565b61085e565b6102ab61097f565b60405161013a91906110be565b61019c6102c636600461100e565b6109e1565b61019c6102d9366004610fde565b610ab0565b6101587fb19546dff01e856fb3f010c267a7b1c60363cf8a4664e21cc89c26224620214e81565b61019c61031336600461110b565b610ad5565b60006001600160e01b03198216637965db0b60e01b148061034957506301ffc9a760e01b6001600160e01b03198316145b92915050565b60008281526020819052604090206001015461036a81610c72565b6103748383610c7c565b505050565b6001600160a01b03811633146103ee5760405162461bcd60e51b815260206004820152602f60248201527f416363657373436f6e74726f6c3a2063616e206f6e6c792072656e6f756e636560448201526e103937b632b9903337b91039b2b63360891b60648201526084015b60405180910390fd5b6103f88282610d00565b5050565b7fb19546dff01e856fb3f010c267a7b1c60363cf8a4664e21cc89c26224620214e61042681610c72565b6104476040518060800160405280604a8152602001611336604a9139610bc3565b6001600160a01b03821661046d5760405162461bcd60e51b81526004016103e590611139565b61048e6040518060800160405280604a8152602001611336604a9139610bc3565b6104a660008051602061138083398151915283610c7c565b6104c76040518060800160405280604a8152602001611336604a9139610bc3565b600280546001810182556000919091527f405787fa12a823e0f2b7631cc41b3ba8828b3321ca811111fa75cd3aa3bb5ace0180546001600160a01b0319166001600160a01b0384161790556040805160808101909152604a80825261053491906113366020830139610bc3565b6040516001600160a01b038316907f500c250171aa20e861b680f93502547b9d436eda7d4c537fc360db6e0c6eedfb90600090a25050565b6000918252602082815260408084206001600160a01b0393909316845291905290205460ff1690565b7fb19546dff01e856fb3f010c267a7b1c60363cf8a4664e21cc89c26224620214e6105bf81610c72565b6001600160a01b0382166105e55760405162461bcd60e51b81526004016103e590611139565b6002546000036106375760405162461bcd60e51b815260206004820152601e60248201527f4552432d333634333a204e6f206964656e74697479207265676973747279000060448201526064016103e5565b60025460005b8181101561073357836001600160a01b03166002828154811061066257610662611170565b6000918252602090912001546001600160a01b03160361072b57600261068960018461119c565b8154811061069957610699611170565b600091825260209091200154600280546001600160a01b0390921691839081106106c5576106c5611170565b9060005260206000200160006101000a8154816001600160a01b0302191690836001600160a01b031602179055506002805480610704576107046111af565b600082815260209020810160001990810180546001600160a01b0319169055019055610733565b60010161063d565b5061074c60008051602061138083398151915284610d00565b6040516001600160a01b038416907f51f353eb5801583fdf2706e43c045b62fdf6b1566820b349390616363ecf72c990600090a2505050565b60008051602061138083398151915261079d81610c72565b6001600160a01b0383166107c35760405162461bcd60e51b81526004016103e590611139565b6001600160a01b03838116600090815260016020526040902054166107fa5760405162461bcd60e51b81526004016103e5906111c5565b6001600160a01b038316600081815260016020526040808220805461ffff60a01b1916600160a01b61ffff88169081029190911790915590519092917f20965fcdc6eed7ae398065b40ece4e732ba667992ca819fc54e80e9f2047c4cf91a3505050565b60008051602061138083398151915261087681610c72565b6001600160a01b0384161580159061089657506001600160a01b03831615155b6108b25760405162461bcd60e51b81526004016103e590611139565b6001600160a01b03848116600090815260016020526040902054161561091a5760405162461bcd60e51b815260206004820152601860248201527f4552432d333634333a20416c72656164792073746f726564000000000000000060448201526064016103e5565b6001600160a01b0384811660008181526001602052604080822080549488166001600160b01b03199095168517600160a01b61ffff891602179055517e30dea7e9c9afaa2e3c9810f2fc9b5181f1bad74ca5a8db85f746a33585e7479190a350505050565b606060028054806020026020016040519081016040528092919081815260200182805480156109d757602002820191906000526020600020905b81546001600160a01b031681526001909101906020018083116109b9575b5050505050905090565b6000805160206113808339815191526109f981610c72565b6001600160a01b038216610a1f5760405162461bcd60e51b81526004016103e590611139565b6001600160a01b0382811660009081526001602052604090205416610a565760405162461bcd60e51b81526004016103e5906111c5565b6001600160a01b0380831660008181526001602052604080822080546001600160b01b0319811690915590519316928392917fca6a4c3370b859312246e7f086284076e557997e10d856b716c23ab67067790b91a3505050565b600082815260208190526040902060010154610acb81610c72565b6103748383610d00565b600080516020611380833981519152610aed81610c72565b6001600160a01b03831615801590610b0d57506001600160a01b03821615155b610b295760405162461bcd60e51b81526004016103e590611139565b6001600160a01b0383811660009081526001602052604090205416610b605760405162461bcd60e51b81526004016103e5906111c5565b6001600160a01b0380841660009081526001602052604080822080548685166001600160a01b031982168117909255915191909316929183917f556ce885dfcea52155c773f1ed2e58781c51945c13030ab8f793c61f51d1b8089190a350505050565b610c0681604051602401610bd79190611220565b60408051601f198184030181529190526020810180516001600160e01b031663104c13eb60e21b179052610d65565b50565b6040516001600160a01b0382166024820152610c069060440160408051601f198184030181529190526020810180516001600160e01b031663161765e160e11b179052610d65565b60006a636f6e736f6c652e6c6f679050600080835160208501845afa505050565b610c068133610d6e565b610c86828261056c565b6103f8576000828152602081815260408083206001600160a01b03851684529091529020805460ff19166001179055610cbc3390565b6001600160a01b0316816001600160a01b0316837f2f8788117e7eff1d82e926ec794901d17c78024a50270940304540a733656f0d60405160405180910390a45050565b610d0a828261056c565b156103f8576000828152602081815260408083206001600160a01b0385168085529252808320805460ff1916905551339285917ff6391f5c32d9c69d2a47ea670b442974b53935d1edc7fd64eb21e047a839171b9190a45050565b610c0681610c51565b610d78828261056c565b6103f857610d8581610dc7565b610d90836020610dd9565b604051602001610da1929190611253565b60408051601f198184030181529082905262461bcd60e51b82526103e591600401611220565b60606103496001600160a01b03831660145b60606000610de88360026112c8565b610df39060026112df565b67ffffffffffffffff811115610e0b57610e0b6112f2565b6040519080825280601f01601f191660200182016040528015610e35576020820181803683370190505b509050600360fc1b81600081518110610e5057610e50611170565b60200101906001600160f81b031916908160001a905350600f60fb1b81600181518110610e7f57610e7f611170565b60200101906001600160f81b031916908160001a9053506000610ea38460026112c8565b610eae9060016112df565b90505b6001811115610f26576f181899199a1a9b1b9c1cb0b131b232b360811b85600f1660108110610ee257610ee2611170565b1a60f81b828281518110610ef857610ef8611170565b60200101906001600160f81b031916908160001a90535060049490941c93610f1f81611308565b9050610eb1565b508315610f755760405162461bcd60e51b815260206004820181905260248201527f537472696e67733a20686578206c656e67746820696e73756666696369656e7460448201526064016103e5565b9392505050565b610f8461131f565b565b600060208284031215610f9857600080fd5b81356001600160e01b031981168114610f7557600080fd5b600060208284031215610fc257600080fd5b5035919050565b6001600160a01b0381168114610c0657600080fd5b60008060408385031215610ff157600080fd5b82359150602083013561100381610fc9565b809150509250929050565b60006020828403121561102057600080fd5b8135610f7581610fc9565b803561ffff8116811461103d57600080fd5b919050565b6000806040838503121561105557600080fd5b823561106081610fc9565b915061106e6020840161102b565b90509250929050565b60008060006060848603121561108c57600080fd5b833561109781610fc9565b925060208401356110a781610fc9565b91506110b56040850161102b565b90509250925092565b6020808252825182820181905260009190848201906040850190845b818110156110ff5783516001600160a01b0316835292840192918401916001016110da565b50909695505050505050565b6000806040838503121561111e57600080fd5b823561112981610fc9565b9150602083013561100381610fc9565b6020808252601e908201527f4552432d333634333a20496e76616c6964207a65726f20616464726573730000604082015260600190565b634e487b7160e01b600052603260045260246000fd5b634e487b7160e01b600052601160045260246000fd5b8181038181111561034957610349611186565b634e487b7160e01b600052603160045260246000fd5b6020808252601c908201527f4552432d333634333a2041646472657373206e6f742073746f72656400000000604082015260600190565b60005b838110156112175781810151838201526020016111ff565b50506000910152565b602081526000825180602084015261123f8160408501602087016111fc565b601f01601f19169190910160400192915050565b7f416363657373436f6e74726f6c3a206163636f756e742000000000000000000081526000835161128b8160178501602088016111fc565b7001034b99036b4b9b9b4b733903937b6329607d1b60179184019182015283516112bc8160288401602088016111fc565b01602801949350505050565b808202811582820484141761034957610349611186565b8082018082111561034957610349611186565b634e487b7160e01b600052604160045260246000fd5b60008161131757611317611186565b506000190190565b634e487b7160e01b600052605160045260246000fdfe7c7c7c7c7c7c7c7c7c7c7c7c7c7c7c7c7c7c7c7c7c7c7c7c7c7c7c7c7c7c7c7c476f7420696e746f207468652062696e644964656e7469747952656769737472792046554e4354494f4ecab5a0bfe0b79d2c4b1c2e02599fa044d115b7511f9659307cb4276950967709a2646970667358221220dc858f6c487b7a0c222ce0051e664f82d46be27f24d953ddf23433e07d1ba14764736f6c634300081100337c7c7c7c7c7c7c7c7c7c7c7c7c7c7c7c7c7c7c7c7c7c7c7c7c7c7c7c7c7c7c7c5468697320697320746865206f776e6572206164647265737320696e2074686520636f6e7374727563746f72",
  "devdoc": {
    "kind": "dev",
    "methods": {
      "addIdentityToStorage(address,address,uint16)": {
        "params": {
          "_country": "Country of the user",
          "_identity": "Identity contract of the user",
          "_userAddress": "User's address"
        }
      },
      "bindIdentityRegistry(address)": {
        "params": {
          "_identityRegistry": "Address of the identity registry"
        }
      },
      "getRoleAdmin(bytes32)": {
        "details": "Returns the admin role that controls `role`. See {grantRole} and {revokeRole}. To change a role's admin, use {_setRoleAdmin}."
      },
      "grantRole(bytes32,address)": {
        "details": "Grants `role` to `account`. If `account` had not been already granted `role`, emits a {RoleGranted} event. Requirements: - the caller must have ``role``'s admin role. May emit a {RoleGranted} event."
      },
      "hasRole(bytes32,address)": {
        "details": "Returns `true` if `account` has been granted `role`."
      },
      "linkedIdentityRegistries()": {
        "returns": {
          "_0": "Array of addresses of the linked identity registries"
        }
      },
      "modifyStoredIdentity(address,address)": {
        "params": {
          "_identity": "New identity contract of the user",
          "_userAddress": "User's address"
        }
      },
      "modifyStoredInvestorCountry(address,uint16)": {
        "params": {
          "_country": "New country of the user",
          "_userAddress": "User's address"
        }
      },
      "removeIdentityFromStorage(address)": {
        "params": {
          "_userAddress": "User's address"
        }
      },
      "renounceRole(bytes32,address)": {
        "details": "Revokes `role` from the calling account. Roles are often managed via {grantRole} and {revokeRole}: this function's purpose is to provide a mechanism for accounts to lose their privileges if they are compromised (such as when a trusted device is misplaced). If the calling account had been revoked `role`, emits a {RoleRevoked} event. Requirements: - the caller must be `account`. May emit a {RoleRevoked} event."
      },
      "revokeRole(bytes32,address)": {
        "details": "Revokes `role` from `account`. If `account` had been granted `role`, emits a {RoleRevoked} event. Requirements: - the caller must have ``role``'s admin role. May emit a {RoleRevoked} event."
      },
      "storedIdentity(address)": {
        "params": {
          "_userAddress": "User's address"
        },
        "returns": {
          "_0": "User's identity contract"
        }
      },
      "storedInvestorCountry(address)": {
        "params": {
          "_userAddress": "User's address"
        },
        "returns": {
          "_0": "User's country"
        }
      },
      "supportsInterface(bytes4)": {
        "details": "See {IERC165-supportsInterface}."
      },
      "unbindIdentityRegistry(address)": {
        "params": {
          "_identityRegistry": "Address of the identity registry"
        }
      }
    },
    "stateVariables": {
      "_identities": {
        "details": "Mapping between a user address and the corresponding identity"
      },
      "_identityRegistries": {
        "details": "Array of Identity Registries linked to this storage"
      }
    },
    "title": "ERC-3643 - IdentityRegistryStorage",
    "version": 1
  },
  "userdoc": {
    "events": {
      "CountryModified(address,uint16)": {
        "notice": "this event is emitted when an Identity's country has been updated  the event is emitted by the 'updateCountry' function  `investorAddress` is the address on which the country has been updated  `country` is the numeric code (ISO 3166-1) of the new country"
      },
      "IdentityModified(address,address)": {
        "notice": "this event is emitted when an Identity has been updated  the event is emitted by the 'updateIdentity' function  `oldIdentity` is the old Identity contract's address to update  `newIdentity` is the new Identity contract's"
      },
      "IdentityRegistryBound(address)": {
        "notice": "this event is emitted when an Identity Registry is bound to the storage contract  the event is emitted by the 'addIdentityRegistry' function  `identityRegistry` is the address of the identity registry added"
      },
      "IdentityRegistryUnbound(address)": {
        "notice": "this event is emitted when an Identity Registry is unbound from the storage contract  the event is emitted by the 'removeIdentityRegistry' function  `identityRegistry` is the address of the identity registry removed"
      },
      "IdentityStored(address,address)": {
        "notice": "this event is emitted when an Identity is registered into the storage contract.  the event is emitted by the 'registerIdentity' function  `investorAddress` is the address of the investor's wallet  `identity` is the address of the Identity smart contract (onchainID)"
      },
      "IdentityUnstored(address,address)": {
        "notice": "this event is emitted when an Identity is removed from the storage contract.  the event is emitted by the 'deleteIdentity' function  `investorAddress` is the address of the investor's wallet  `identity` is the address of the Identity smart contract (onchainID)"
      }
    },
    "kind": "user",
    "methods": {
      "addIdentityToStorage(address,address,uint16)": {
        "notice": "Adds a new identity to the storage"
      },
      "bindIdentityRegistry(address)": {
        "notice": "Links an identity registry to this storage"
      },
      "linkedIdentityRegistries()": {
        "notice": "Returns all linked identity registries"
      },
      "modifyStoredIdentity(address,address)": {
        "notice": "Modifies the stored identity of a user"
      },
      "modifyStoredInvestorCountry(address,uint16)": {
        "notice": "Modifies the stored investor country of a user"
      },
      "removeIdentityFromStorage(address)": {
        "notice": "Removes a user identity from the storage"
      },
      "storedIdentity(address)": {
        "notice": "Returns the stored identity of a user"
      },
      "storedInvestorCountry(address)": {
        "notice": "Returns the stored investor country of a user"
      },
      "unbindIdentityRegistry(address)": {
        "notice": "Unlinks an identity registry from this storage"
      }
    },
    "notice": "Stores user identities and their respective countries.",
    "version": 1
  },
  "storageLayout": {
    "storage": [
      {
        "astId": 354,
        "contract": "contracts/registry/IdentityRegistryStorage.sol:IdentityRegistryStorage",
        "label": "_roles",
        "offset": 0,
        "slot": "0",
        "type": "t_mapping(t_bytes32,t_struct(RoleData)349_storage)"
      },
      {
        "astId": 3370,
        "contract": "contracts/registry/IdentityRegistryStorage.sol:IdentityRegistryStorage",
        "label": "_identities",
        "offset": 0,
        "slot": "1",
        "type": "t_mapping(t_address,t_struct(Identity)3358_storage)"
      },
      {
        "astId": 3374,
        "contract": "contracts/registry/IdentityRegistryStorage.sol:IdentityRegistryStorage",
        "label": "_identityRegistries",
        "offset": 0,
        "slot": "2",
        "type": "t_array(t_address)dyn_storage"
      }
    ],
    "types": {
      "t_address": {
        "encoding": "inplace",
        "label": "address",
        "numberOfBytes": "20"
      },
      "t_array(t_address)dyn_storage": {
        "base": "t_address",
        "encoding": "dynamic_array",
        "label": "address[]",
        "numberOfBytes": "32"
      },
      "t_bool": {
        "encoding": "inplace",
        "label": "bool",
        "numberOfBytes": "1"
      },
      "t_bytes32": {
        "encoding": "inplace",
        "label": "bytes32",
        "numberOfBytes": "32"
      },
      "t_contract(IIdentity)328": {
        "encoding": "inplace",
        "label": "contract IIdentity",
        "numberOfBytes": "20"
      },
      "t_mapping(t_address,t_bool)": {
        "encoding": "mapping",
        "key": "t_address",
        "label": "mapping(address => bool)",
        "numberOfBytes": "32",
        "value": "t_bool"
      },
      "t_mapping(t_address,t_struct(Identity)3358_storage)": {
        "encoding": "mapping",
        "key": "t_address",
        "label": "mapping(address => struct IdentityRegistryStorage.Identity)",
        "numberOfBytes": "32",
        "value": "t_struct(Identity)3358_storage"
      },
      "t_mapping(t_bytes32,t_struct(RoleData)349_storage)": {
        "encoding": "mapping",
        "key": "t_bytes32",
        "label": "mapping(bytes32 => struct AccessControl.RoleData)",
        "numberOfBytes": "32",
        "value": "t_struct(RoleData)349_storage"
      },
      "t_struct(Identity)3358_storage": {
        "encoding": "inplace",
        "label": "struct IdentityRegistryStorage.Identity",
        "members": [
          {
            "astId": 3354,
            "contract": "contracts/registry/IdentityRegistryStorage.sol:IdentityRegistryStorage",
            "label": "identityContract",
            "offset": 0,
            "slot": "0",
            "type": "t_contract(IIdentity)328"
          },
          {
            "astId": 3357,
            "contract": "contracts/registry/IdentityRegistryStorage.sol:IdentityRegistryStorage",
            "label": "investorCountry",
            "offset": 20,
            "slot": "0",
            "type": "t_uint16"
          }
        ],
        "numberOfBytes": "32"
      },
      "t_struct(RoleData)349_storage": {
        "encoding": "inplace",
        "label": "struct AccessControl.RoleData",
        "members": [
          {
            "astId": 346,
            "contract": "contracts/registry/IdentityRegistryStorage.sol:IdentityRegistryStorage",
            "label": "members",
            "offset": 0,
            "slot": "0",
            "type": "t_mapping(t_address,t_bool)"
          },
          {
            "astId": 348,
            "contract": "contracts/registry/IdentityRegistryStorage.sol:IdentityRegistryStorage",
            "label": "adminRole",
            "offset": 0,
            "slot": "1",
            "type": "t_bytes32"
          }
        ],
        "numberOfBytes": "64"
      },
      "t_uint16": {
        "encoding": "inplace",
        "label": "uint16",
        "numberOfBytes": "2"
      }
    }
  }
}